:1000000004308A00792C00000A108A100A11820735
:1000100028340C3401340634C4244527A020501D54
:10002000A0123117343300003D30840083130008E0
:10003000031928280130F800F701F70B1D28F80BE9
:100040001C284A30F700F70B23282628800B1A2893
:10005000080044182D2808122E28081683160812A6
:100060008312C418352888123628881683168812F9
:10007000831244193D2808133E28081783160813D5
:100080008312C419452888134628881783168813B5
:10009000000083128815831688114E288312881158
:1000A0008316881183120800C501831608160030D4
:1000B0008312081A0130C504831688160030831293
:1000C000881A0130F7000310F70D7708C50483166E
:1000D000081700308312081B0130F700F70DF70DE9
:1000E000FC30F7057708C5048316881700308312A3
:1000F000881B0130F700F70DF70DF70DF830F70505
:100100007708C5044508F800080088108316881091
:100110000816881608178817831208158316081101
:100120000000831288158316881100008312542062
:100130007808C4008811831688110000831288157E
:10014000831688110000831254207808C300881198
:100150008316881108128812081388138312440E1C
:10016000F700F030F70577084304F8007808C3007B
:10017000C31FBC2883168828C108031DC128881006
:10018000C228881483168810000083120811831671
:100190000811000083128811831688118312420E01
:1001A000C3000F30C3054308C400292042080F399B
:1001B000C300C400292008008316081288120813FF
:1001C00088138811881008118312881083168810EC
:1001D000831208118316081183128811831688115F
:1001E0000F308312BD0014200130B9003908033CE0
:1001F000031C02290330C40029200530BD0014204F
:10020000B90AF6280230C4002920B9013908033C94
:10021000031C132939080420BA00C1013A08C2009E
:100220008520B90A06298A110A12882CC1010130D9
:10023000C20085200230BD0014208A110A12892CC8
:100240008E30F7003A08F8003908F900FA01F8088A
:10025000031D34297908F800F9010830F702F8087D
:10026000031D3429F7013C290310F81B3B29F90D24
:10027000F80DF7033429F8138A110A12B02C460836
:100280000319AF29CE004A080319AF29CE07031876
:1002900050297F30CE02031CAF290319AF295429FE
:1002A0008130CE070318AF294E08F700F801F90195
:1002B000FA014708D200D2174808D1004908D000F7
:1002C0001830CE00CF01501C7D294D08FA07031CC1
:1002D0006F29F90A031D6F29F80A0319CF174C0873
:1002E000F907031C7629F80A0319CF174B08C80031
:1002F000C8174808F8070318CF17CF0DF80CF90CEA
:10030000FA0CD20CD10CD00C0310CE0B62290130A8
:10031000F7070318AF29F81B9429D20DFA0DF90D30
:10032000F80DF7030319AF29D21FA529FA0A031DF7
:10033000A529F90A031DA529F80A031DA529F80C0A
:10034000F90CFA0CF70A0319AF294708CF004B083C
:10035000CF06CF1FAD29F817B329F813B329F7013A
:10036000F801F901FA0108003D080319792AC900CA
:1003700041080319792AC902031CC3297F30C90720
:100380000318792AC9298130C902031C792A031963
:10039000792A4908F700F801F901FA01C8013E0875
:1003A000C700C7173F08C6004008C5001930C9007C
:1003B0004408C5020318EC290130C6020318EC29D1
:1003C000C7020318EC29C8020318EC29C80AC70A97
:1003D000C60A4408C5071E2A4308C6020318072A8E
:1003E0000130C7020318072AC8020318072AC80ADF
:1003F000C70A4308C6074408C507031C1E2AC60AC5
:10040000031D1E2AC70A031D1E2AC80A1E2A4208E7
:100410008038C70203181D2A0130C80203181D2A9C
:10042000C80A42088038C7074308C607031CFB29CF
:10043000C70A031DFB29C80AFB297A14C90B212A04
:100440002C2A0310C50DC60DC70DC80D0310FA0DDB
:10045000F90DF80DCA0DD8294A1C342A0310F80CDE
:10046000F90CFA0CCA0C372AF7030319792ACA1BAC
:10047000602A0310C50DC60DC70DC80D4408C5027E
:1004800003184C2A0130C60203184C2AC70203186D
:100490004C2AC802031C6F2A4308C6020318572AB5
:1004A0000130C7020318572AC802031C6F2A4208EA
:1004B0008038C7020318602A0130C802031C6F2A63
:1004C000FA0A031D6F2AF90A031D6F2AF80A031D91
:1004D0006F2AF70A0319792AF80CF90CFA0C3E086E
:1004E000C9004208C906C91F772AF8177D2AF813E0
:1004F0007D2AF701F801F901FA018A110A12D72CB5
:100500003E0B842ABF01982A3E08023C031D8B2A19
:100510004030BF00982A3E08033C031D922A143045
:10052000BF00982A3E08043C031D982A5430BF009F
:1005300001303D02BF073F088038C000C1014008BC
:10054000C200852008002008840083132118831727
:1005500046088000840A8001A00A0319A10A080045
:100560000B08BA008B13831603178C170C140000AA
:10057000000083120313BA1B8B170318E72A031713
:100580000C087F390313BA0003170D080313BB00CF
:1005900003170F080313BC003A08C600A3223B0848
:1005A00003178D0003133C0803178F0003130B0878
:1005B000BD008B13831603178C170C14000000006A
:1005C00083120313BD1B8B17B90BE72A062B0317E6
:1005D0000C0D0E0D7F390313BA0003170D0803131A
:1005E000BB0003170F080313BC003A08C600A32280
:1005F0003B0803178D0003133C0803178F008D0A77
:1006000003198F0A03100313B90BB02A8A110A12B7
:10061000F02C83180E2B4E3084008313F701F80161
:10062000F901FA01CE01CF01D001D1014D084C04EE
:100630004B044A0403194C2B2030D2000310C60D82
:10064000C70DC80DC90DCE0DCF0DD00DD10D4D0864
:100650005102031D352B4C085002031D352B4B084E
:100660004F02031D352B4A084E02031C462B4A0835
:10067000CE024B08031C4B0FCF024C08031C4C0F3F
:10068000D0024D08031C4D0FD1020314F70DF80DD5
:10069000F90DFA0DD20B1E2B4E088000840A4F086C
:1006A0008000840A50088000840A510880000800F5
:1006B0000408BE003D08C0000319772B3C08C900A0
:1006C0003B08C8003A08C7003908C600CD01CC0174
:1006D0002030CB008230CA003F217A08BC00790864
:1006E000BB007808BA007708B900C00B5E2B3C0845
:1006F000C9003B08C8003A08C7003908C6004608C8
:10070000B63CC600FA014708CA00C7170310C70C59
:10071000C80CC90CFA0CF90CF80CF70CC60B862B9C
:10072000CA1F9D2BF709F809F909FA09F70A0319F5
:10073000F80A0319F90A0319FA0A7A08BC007908B9
:10074000BB007808BA007708B900BC1FB42BBE0301
:10075000BE16B909BA09BB09BC09B90A0319BA0A14
:100760000319BB0A0319BC0A3B30C5009A30C40008
:10077000CA30C300C2010A30C0003D080319BE0AD6
:1007800083143930840083133C08C9003B08C80037
:100790003A08C7003908C6004508CD004408CC0017
:1007A0004308CB004208CA0009237808F708031D54
:1007B000EC2B3D0A40020319EC2B3E080319EE2BEB
:1007C0000F3940020319E62B03181E2CBE1B1E2CEA
:1007D0003E1BEE2B20301A2C2030BE05BE1EFC2BFB
:1007E000BE123D08031DBE037708BE002D30C600B3
:1007F000A3223E08F700BE013D084002031D0A2C5B
:100800007708BE002E30C600A3223E08F700203035
:10081000BE0500303030BE1E1A2CBE123D08031D2E
:10082000BE037708BE002D30C600A3223E08F700A5
:10083000BE013030F7077708C600A32283104508B1
:10084000C9004408C8004308C7004208C600CD01DB
:10085000CC01CB010A30CA0009237A08C500790807
:10086000C4007808C3007708C200C00BC02B8A11EF
:100870000A12FD2C3A08FA003908840083137A180A
:10088000831780080319762C3A08FA003908840087
:1008900083137A1883170008BB003B08BC003C0890
:1008A0000C3A03195A2C063A0319622C023A03191E
:1008B000682C6D2CC1010130C20085200230BD00C2
:1008C0001420722C0130BD000230BE008022722C38
:1008D000C1011030C2008520722C0130C1003C08DB
:1008E000C2008520B90A0319BA0A3A2C8A110A12E1
:1008F000012D03081F398300A101A00183161F14D5
:100900009F141F159F1107309C0083138312DC284E
:10091000162983161F1383121F179F1783169F17FD
:1009200083121F1483161F109F101F119F11283050
:10093000F80083121F08C73978049F001F151F197C
:100940009F2C1E08F90083161E08F80079088312F0
:10095000A3007808A2002308BA002208B9002029C1
:10096000C901C8012030C7008130C6007A08CD0017
:100970007908CC007808CB007708CA003F217A08B4
:10098000BC007908BB007808BA007708B9007A087B
:10099000C0007908BF007808BE007708BD00C40118
:1009A000C030C3007F30C2008830C100B4297A084B
:1009B000A7007908A6007808A5007708A4000130F0
:1009C000BD00BE008022A1012830A0000C3003171A
:1009D0008D0000308F00031009300313B900B02AD6
:1009E000893084002708BC002608BB002508BA000F
:1009F0002408B9000430BD00582BBA012830B900D2
:100A00003A2C0230B900FA30BD001420B90B032D86
:040A10009E2C6300B5
:02400E00723FFF
:00000001FF
;PIC16F877A
;CRC=5D74  CREATED="18-Sep-22 20:48"
